:1000000045C0000058C0000056C0000054C00000A9
:1000100052C0000050C000004EC000004CC00000A4
:100020004AC0000048C0000046C0000044C00000B4
:1000300042C0000040C000003EC000003CC00000C4
:100040003AC0000038C0000036C0000034C00000D4
:1000500032C0000030C000002EC000002CC00000E4
:100060002AC0000028C0000026C0000024C00000F4
:1000700022C0000020C000001EC000001CC0000004
:100080001AC0000018C0000016C0000011241FBED6
:10009000CFEFD0E1DEBFCDBF11E0A0E0B1E0EEE5F3
:1000A000F3E000E00BBF02C007900D92AC3EB10739
:1000B000D9F7E8D052C1A4CF1092900087E689B951
:1000C00088E18AB986E08093950008955D9BFECF14
:1000D0008CB908955F9BFECF8CB10895CF93DF93C9
:1000E000EC0102C02196F2DF88818111FBCFDF9104
:1000F000CF9108951F93CF93DF9300D000D000D00D
:10010000CDB7DEB7AC01892B89F580E3DFDF42C0D4
:100110009A01ADECBCEC12D1969587959695879592
:10012000969587959C01220F331F880F991F880F82
:10013000991F880F991F820F931F9A01281B390B53
:10014000C901805DE1E0F0E0EC0FFD1FE10FF11D62
:1001500017FDFA9580839A01F1D0AC015695479529
:1001600056954795569547951F5F01C010E041157C
:10017000510571F0163064F20BC01150E1E0F0E06F
:10018000EC0FFD1FE10FF11D17FDFA9580819EDF39
:1001900011169CF326960FB6F894DEBF0FBECDBFA6
:1001A000DF91CF911F9108950F931F93CF93DF930A
:1001B0008C01EB0180E091E091DFC8019BDF8FE2D1
:1001C00085DFCE0197DF80ED91E088DFDF91CF9171
:1001D0001F910F910895CF92DF92EF92FF920F93AC
:1001E0001F93CF93DF938C01EB019C01A8EEB3E04A
:1001F000A5D09E0140E050E07FD069017A0188E0FF
:1002000091E06CDF82E291E069DFC80173DF80ED8D
:1002100091E064DF8EE291E061DFCE016BDF80ED83
:1002200091E05CDF8AE391E059DF9601ADECBCEC34
:1002300085D0EC01D695C795D695C795D695C79527
:10024000CE0158DF8EE242DFCE01880F991FCC0F1E
:10025000DD1FCC0FDD1FCC0FDD1FC80FD91FC6015E
:100260008C1B9D0B47DF8CE491E038DF81E591E04A
:1002700035DFDF91CF911F910F91FF90EF90DF90CD
:10028000CF90089519DF89E691E028DF83E991E0B6
:1002900025DF85EB91E022DFF12CC0E0D0E000E02B
:1002A00010E023C017DFE82E8AE0E81203C08DE0DB
:1002B000F816D1F08DE0E81619F08AE0E8120AC0CD
:1002C0000F5F1F4F219683ED91E008DFBE01C8014B
:1002D0006BDF0AC080E2E81207C021968FED91E043
:1002E000FDDEBE01C80160DFFE2CC431D105D0F2B5
:1002F000BE01C80170DFFFCFA1E21A2EAA1BBB1BF3
:10030000FD010DC0AA1FBB1FEE1FFF1FA217B307E1
:10031000E407F50720F0A21BB30BE40BF50B661FF7
:10032000771F881F991F1A9469F7609570958095BB
:1003300090959B01AC01BD01CF010895A29FB00132
:10034000B39FC001A39F700D811D1124911DB29F09
:0E035000700D811D1124911D0895F894FFCFAA
:10035E00636F756E742020000D0A3D3D3D3D3D20BE
:10036E005445535420444F4E45203D3D3D3D3D0D9B
:10037E000A006465746563746564203A20006174D4
:10038E0074656D707473203A2000646574656374CF
:10039E00696F6E2072617465203A200020250D0A67
:1003AE00003D3D3D3D3D3D3D3D3D3D3D3D3D3D3DAC
:1003BE003D3D3D3D3D3D0D0A000D0A3D3D3D204973
:1003CE00522053454E534F522044455445435449B1
:1003DE004F4E2D524154452054455354203D3D3DE2
:1003EE000D0A005350414345203D206D69737365DE
:1003FE006420202028617474656D7074206F6E6C9B
:10040E0079290D0A0064726F702074686520706916
:10041E006C6C2032302074696D65732E2E2E0D0A91
:10042E000D0A005B44455445435445445D20005B32
:0C043E004D49535345445D202020000030
:00000001FF
