:1000000045C0000090C200009DC20000AAC20000CE
:100010005AC00000B5C2000056C0000054C0000025
:1000200052C0000050C000004EC000004CC0000094
:100030004AC0000048C0000046C0000097C500004C
:1000400042C0000040C000003EC000003CC00000B4
:100050003AC0000038C0000036C0000034C00000C4
:1000600032C0000030C000002EC000002CC00000D4
:100070002AC0000028C0000026C0000024C00000E4
:1000800022C0000020C000001EC0000011241FBEBE
:10009000CFEFD0E1DEBFCDBF11E0A0E0B1E0E6E4FC
:1000A000FCE000E00BBF02C007900D92AC30B1073E
:1000B000D9F721E0ACE0B1E001C01D92A534B20750
:1000C000E1F768D1BEC59CCFACE0B1E012966D916E
:1000D0007C9113971196EC911197F0E0EE0FFF1FB2
:1000E000EF5FFE4F80819181680F791F81E08C93D3
:1000F00024C4089581118093100180E05BD194D2D3
:1001000081E0B2D485E080930C01089580910C01C8
:10011000882321F0853021F480E0089580E008955F
:1001200081E00895F3DF882331F039D1882319F075
:1001300081E0E0CF089580910C01823091F018F4B5
:10014000813031F00895833011F1843051F10895F8
:1001500081E06DD4811136C052D282E080930C01CF
:10016000089573D281112EC05FD280910D0182302B
:1001700051F4C7D4ECE0F1E0658376838783908700
:1001800084E08083089583E080930C0108955DD21C
:10019000811118C0ECE0F1E081818F5F818394CF01
:1001A0000895609111017091120180911301909155
:1001B000140128E833E140E050E0B4D4882311F082
:1001C00082E098CF0895CF93C82F60E070E062D4AA
:1001D0008C2F76D4C11104C081E08093160103C036
:1001E00081E080931701CF910895CF93C82F78D1E4
:1001F000811105C08C2FEAD0811103C003C081E0BA
:1002000001C081E0CF910895E5E1F1E082E08083D3
:10021000118212828CD380E076D181E074C108957E
:10022000CF93DF93C5E1D1E081E0888319821A8200
:100230001C821B821E821D8264D46F83788789870B
:100240009A8780E060D181E05ED180E0BFD08823D2
:1002500011F080E0B8DF81E0B9D0882311F081E0AF
:10026000B2DF80911601882339F08091170188232D
:1002700019F083E080931501DF91CF91089590915B
:10028000150181E0933009F080E00895CF92DF926C
:10029000EF92FF9280911501833009F45FC0809145
:1002A0001601811105C0A1DF882311F080E08BDFEA
:1002B00080911701811106C081E097DF882311F03A
:1002C00081E081DF80911601882341F08091170140
:1002D000882321F083E08093150140C080911501AF
:1002E000813009F03BC00DD46B017C0160911C0191
:1002F00070911D0180911E0190911F0125E030E059
:1003000040E050E00FD4882349F1E5E1F1E0C782F5
:10031000D086E186F286818181110EC06FEF9FD376
:10032000E5E1F1E0838194810196948383838830B1
:10033000974010F069DF12C08091170181110EC043
:100340006FEF81E08CD3E5E1F1E085819681019644
:10035000968385838037974108F056DFFF90EF90B2
:10036000DF90CF900895C4D326D443D049D22DD165
:1003700024D4789485E028D453CF089587D062D2CE
:1003800070D11FD4833021F0853019F47FCF0895C8
:10039000C9CE0895E8DF10D4F1DF19D4FCCF2FB710
:1003A000F89491E003C08091200190E09111FBCF7F
:1003B0002FBF0895882331F084E188BF89B7846115
:1003C00089BF089589B78B7E89BF0895811103C0C5
:1003D00090B3917007C0813051F4819B02C091E0CD
:1003E00001C090E081E0913019F080E0089580E054
:1003F0000895CF93E0E2F1E0108213821482158217
:10040000168280E006C0E82FF0E0E05EFE4F118229
:100410008F5F8230C0F381B38E7F81BB81B38D7FCC
:1004200081BB81B38B7F81BB82B18F7E82B982B366
:100430008E7F82BB82B38D7F82BB82B3846082BB9E
:1004400083B1806183B9EAE6F0E08081807C8F62CD
:1004500080838AB78C7F82608ABF87E188BF89B733
:100460008B7E89BF89B7836089BFC0E00BC08C2FAA
:10047000ADDF882331F0EC2FF0E0E05EFE4F81E04D
:100480008183CF5FC23098F3CF910895CF9360916D
:1004900023017091240180912501909126012AE089
:1004A00030E040E050E03ED38823C1F02AD360938F
:1004B0002301709324018093250190932601C0E0CD
:1004C0000BC08C2F83DF882331F0EC2FF0E0E05E4F
:1004D000FE4F81E08183CF5FC23098F3CF910895C2
:1004E000823078F43FB7F89421E006C0E82FF0E0BE
:1004F000E05EFE4F918120E02111F8CF3FBF892FB0
:10050000089580E00895823068F42FB7F89491E060
:1005100006C0E82FF0E0E05EFE4F118290E09111FE
:10052000F8CF2FBF08951F920F920FB60F9211248C
:100530008F9381E0809321018F910F900FBE0F90D8
:100540001F9018951F920F920FB60F9211248F9340
:1005500081E0809322018F910F900FBE0F901F902A
:1005600018951F920F920FB60F9211248F9381E06E
:10057000809320018F910F900FBE0F901F901895C0
:100580001F920F920FB60F9211248F9381E08093E8
:1005900020018F910F900FBE0F901F901895282F5C
:1005A00030E0A0EDB7E03ED324EB30E040E050E097
:1005B00017D3DA01C9018C509E4FAF4FBF4F9C013A
:1005C000220F331F3BBD2ABD089587B3806287BBCE
:1005D00082E88FBD8AE18EBD8FE39CE997BD86BD21
:1005E00010922C0184EB80932B0110922701109222
:1005F00028011092290110922A01D1CF08958091EB
:100600002C01811110C082E380932B01C8DF81E0AF
:1006100080932C0176D260932701709328018093F8
:10062000290190932A01089584EB80932B01B7DF71
:1006300083E080932C0165D2609327017093280199
:100640008093290190932A01089580912C01813093
:1006500021F0833021F481E0089581E0089580E065
:10066000089580912C01813019F0833071F1089543
:1006700060912701709128018091290190912A01B0
:1006800024EF31E040E050E04DD2882371F139D2BF
:1006900060932701709328018093290190932A0188
:1006A00080912B01863018F410922B0103C08550E5
:1006B00080932B0180912B0172DF80912B0181119E
:1006C00014C082E080932C010895609127017091FD
:1006D00028018091290190912A0126E930E040E02B
:1006E00050E020D2811110922C010895811102C096
:1006F00020E001C024E08FE090E0022E02C0880FCD
:10070000991F0A94E2F79BB380956F7070E002C066
:10071000660F771F2A95E2F78923682B6BBB089534
:10072000811109C0FB01118210828CE895E0FA0169
:10073000918380830895FB011182108284E392E10A
:10074000FA019183808308958617970734F048173C
:1007500059072CF4842F952F0895862F972F0895ED
:100760001F93CF93DF93162F282F30E06130A9F429
:10077000A901440F551F440F551F440F551FF90180
:10078000EE0FFF1FE40FF51FE35DFE4F448150E0C5
:100790004F5F5F4F4370448314C0A901440F551F3E
:1007A000440F551F440F551FF901EE0FFF1FE40FB3
:1007B000F51FE35DFE4F448150E04D5F5F4F437096
:1007C0004483E901CC0FDD1F220F331F220F331F9B
:1007D000220F331FC20FD31FC35DDE4FEC81F0E049
:1007E000E95FFE4F608182DF88819981810F911DD1
:1007F00017FD9A9599838883DF91CF911F91089572
:100800008FEF8ABB1BBA20E01AC0822F90E0FC0158
:10081000EE0FFF1F880F991F880F991F880F991FD0
:10082000E80FF91FE35DFE4F1182108213821282DE
:100830001482158216821782108611862F5F22304D
:1008400020F30895CF92DF92EF92FF920F931F93C0
:10085000CF9357D16B017C01C0E05EC00C2F10E03C
:10086000F801EE0FFF1FC801880F991F880F991F0D
:10087000880F991FE80FF91FE35DFE4F85818130D6
:1008800009F049C0C801880F991F880F991F880F68
:10089000991FF801EE0FFF1FE80FF91FE35DFE4FF0
:1008A000668177818085918523E030E040E050E0EB
:1008B00039D1882381F1C801880F991F880F991FAA
:1008C000880F991FF801EE0FFF1FE80FF91FE35D76
:1008D000FE4FC682D782E086F186208131818281F7
:1008E00093812817390779F4F801EE0FFF1F000FE5
:1008F000111F000F111F000F111FE00FF11FE35D0B
:10090000FE4F158208C02817390714F461E001C0B2
:100910006FEF8C2F25DFCF5FC23008F49FCFCF91D0
:100920001F910F91FF90EF90DF90CF9008951BBA29
:10093000EDE2F1E0158217860895EF92FF920F9392
:100940001F93CF93DF9300D000D0CDB7DEB78230B6
:1009500008F05FC0082F10E0F801EE0FFF1F9801AC
:10096000220F331F220F331F220F331FE20FF31FFB
:10097000E35DFE4F9581913009F44DC07B01AE01DE
:100980004D5F5F4FBE016F5F7F4FCADE4B815C8161
:1009900069817A81C701D8DE9801220F331F220FA7
:1009A000331F220F331FF801EE0FFF1FE20FF31F5B
:1009B000E35DFE4F93838283208131818217930709
:1009C00081F4F801EE0FFF1F000F111F000F111F20
:1009D000000F111FE00FF11FE35DFE4F158281E054
:1009E0001BC0C801880F991F000F111F000F111F96
:1009F000000F111F080F191F035D1E4F81E0F80142
:100A000085837FD0F801668377838087918781E033
:100A100003C080E001C080E00F900F900F900F9016
:100A2000DF91CF911F910F91FF90EF900895823049
:100A3000A0F490E0FC01EE0FFF1F880F991F880FB4
:100A4000991F880F991FE80FF91FE35DFE4F9581ED
:100A500081E0913019F080E0089580E008958230BF
:100A600010F461117DCE0895823098F490E0FC017D
:100A7000EE0FFF1F880F991F880F991F880F991F6E
:100A8000E80FF91FE35DFE4F15828081918193830A
:100A900082830895823098F490E0FC01EE0FFF1FEE
:100AA000880F991F880F991F880F991FE80FF91F4A
:100AB000E35DFE4F718360837383628315820895C3
:100AC000CF93823098F4C82F60E010DE8C2F90E036
:100AD000FC01EE0FFF1F880F991F880F991F880FC9
:100AE000991FE80FF91FE35DFE4F1582CF9108951E
:100AF0008CE083BF89EF81BF12BE87B7826087BF5A
:100B000008952FB7F89431E009C0609141017091C8
:100B10004201809143019091440130E03111F5CFC1
:100B20002FBF08958F929F92AF92BF92CF92DF9284
:100B3000EF92FF924B015C0169017A01E2DFDC0177
:100B4000CB0188199909AA09BB0921E08C159D05DB
:100B5000AE05BF0508F420E0822FFF90EF90DF90F4
:100B6000CF90BF90AF909F908F9008951F920F925B
:100B70000FB60F9211248F939F93AF93BF938091E1
:100B8000410190914201A0914301B091440101962D
:100B9000A11DB11D8093410190934201A093430197
:100BA000B0934401BF91AF919F918F910F900FBE71
:100BB0000F901F9018950895089585E08093000187
:100BC0000895809100010895809300010895809117
:100BD0000001853021F453DB81111092000108954A
:100BE000A1E21A2EAA1BBB1BFD010DC0AA1FBB1F31
:100BF000EE1FFF1FA217B307E407F50720F0A21BA3
:100C0000B30BE40BF50B661F771F881F991F1A940F
:100C100069F760957095809590959B01AC01BD0139
:100C2000CF010895A29FB001B39FC001A39F700D93
:100C3000811D1124911DB29F700D811D1124911DE4
:060C40000895F894FFCFB7
:0C0C460005C4FF00003C000C0603090080
:00000001FF
